I0317D10082      000000000000502163601                              0000          000000000000001217240000000       00      PRICE CHANGES                               N  00000000 0000P SGRP08DAVEWKDD
I0317D100821211240000000377825021636030000000007800000034SEVEN-UP   0008       2LT010003290000001217240000049OUNCE  017UP 2LT                                           N  00032901 0000P SGRP08DAVEWKDD
I0317D100821211240000000377825021636030000000007800000075SEVEN-UP   0008       2LT010003290000001217240000049OUNCE  017UP ZERO 2LT                                      N  00032901 0000P SGRP08DAVEWKDD
I0317D100821211240000000377825021636030000000007800000531SEVEN-UP   0008       2LT010003290000001217240000049OUNCE  017UP 2LT CHERRY                                    N  00032901 0000P SGRP08DAVEWKDD
I0317D100821211240000000377825021636030000000007800000831SEVEN-UP   0008       2LT010003290000001217240000049OUNCE  017UP ZERO CHERRY 2LT                               N  00032901 0000P SGRP08DAVEWKDD
I0317D100821211240000000377825021636030000000007800001646SEVEN-UP   0008       2LT010003290000001217240000049OUNCE  01SQUIRT 2LT                                        N  00032901 0000P SGRP08DAVEWKDD
I0317D100821211240000000377825021636030000000007800001746SEVEN-UP   0008       2LT010003290000001217240000049OUNCE  01SQUIRT ZERO 2LT                                   N  00032901 0000P SGRP08DAVEWKDD
I0317D100821211240000000377825021636040000000007800000408SEVEN-UP   0008       2LT010003290000001217240000049OUNCE  01HAWAIIAN PUNCH RED                                N  00032901 0000P SGRP08DAVEWKDD
I0317D100821211240000000377825021636040000000007800002036SEVEN-UP   0008       2LT010003290000001217240000049OUNCE  01TAHITIAN TREAT 2LT       FRUIT PUNCH              N  00032901 0000P SGRP08DAVEWKDD
I0317D100821211240000000377825021636040000000007800002036SEVEN-UP   0008       2LT010003290000001217240000049OUNCE  01TAHITIAN TREAT 2LT       FRUIT PUNCH              N  00032901 0000P SGRP08DAVEWKDD
I0317D100821211240000000377825021636040000000007800003180SEVEN-UP   0008       2LT010003290000001217240000049OUNCE  01SUNKIST 2LT STRAWBERRY   LEMONADE                 N  00032901 0000P SGRP08DAVEWKDD
I0317D100821211240000000377825021636040000000007800005246SEVEN-UP   0008       2LT010003290000001217240000049OUNCE  01A&W 2LT ROOT BEER                                 N  00032901 0000P SGRP08DAVEWKDD
I0317D100821211240000000377825021636040000000007800005446SEVEN-UP   0008       2LT010003290000001217240000049OUNCE  01A&W 2LT CREAM SODA                                N  00032901 0000P SGRP08DAVEWKDD
I0317D100821211240000000377825021636040000000007800011646SEVEN-UP   0008       2LT010003290000001217240000049OUNCE  01SUNKIST 2LT GRAPE                                 N  00032901 0000P SGRP08DAVEWKDD
I0317D100821211240000000377825021636050000000007800005346SEVEN-UP   0008       2LT010003290000001217240000049OUNCE  01A&W 2LT ROOTBEER         ZERO SUGAR               N  00032901 0000P SGRP08DAVEWKDD
I0317D100821211240000000377825021636050000000007800005546SEVEN-UP   0008       2LT010003290000001217240000049OUNCE  01A&W 2LT ZERO CREAM SODA                           N  00032901 0000P SGRP08DAVEWKDD
I0317D100821211240000000377825021636050000000007800012246SEVEN-UP   0008       2LT010003290000001217240000049OUNCE  01SUNKIST 2LT ZERO SUGAR                            N  00032901 0000P SGRP08DAVEWKDD
I0317D100821211240000000377825021636080000000007800002505SEVEN-UP   0008       2LT010003290000001217240000049OUNCE  01CANADA DRY BLACKBERRY    2LT                      N  00032901 0000P SGRP08DAVEWKDD
I0317D100821211240000000377825021636080000000007800003025SEVEN-UP   0008       2LT010003290000001217240000049OUNCE  01CANADA DRY LEMONADE 2LT                           N  00032901 0000P SGRP08DAVEWKDD
I0317D100821211240000000377825021636080000000007800003328SEVEN-UP   0008       2LT010003290000001217240000049OUNCE  01CANADA DRY 2LT BOLD                               N  00032901 0000P SGRP08DAVEWKDD
I0317D100821211240000000377825021636080000000007800014146SEVEN-UP   0008       2LT010003290000001217240000049OUNCE  01CANADA DRY 2LT ZERO      CRANBERRY GINGERALE      N  00032901 0000P SGRP08DAVEWKDD
I0317D100821211240000000377825021636080000000007800014146SEVEN-UP   0008       2LT010003290000001217240000049OUNCE  01CANADA DRY 2LT ZERO      CRANBERRY GINGERALE      N  00032901 0000P SGRP08DAVEWKDD
I0317D100821211240000000377825021636080000000007800014846SEVEN-UP   0008       2LT010003290000001217240000049OUNCE  01CANADA DRY ZERO 2LT      GINGER ALE               N  00032901 0000P SGRP08DAVEWKDD
I0317D100821211240000000377825021636080000000007800014846SEVEN-UP   0008       2LT010003290000001217240000049OUNCE  01CANADA DRY ZERO 2LT      GINGER ALE               N  00032901 0000P SGRP08DAVEWKDD
I0317D100821211240000000377825021636080000000007800015246SEVEN-UP   0008       2LT010003290000001217240000049OUNCE  01CANADA DRY GINGER ALE    2LT                      N  00032901 0000P SGRP08DAVEWKDD
I0317D100821211240000000377825021636080000000007800015246SEVEN-UP   0008       2LT010003290000001217240000049OUNCE  01CANADA DRY GINGER ALE    2LT                      N  00032901 0000P SGRP08DAVEWKDD
I0317D100821211240000000377825021636080000000007800015646SEVEN-UP   0008       2LT010003290000001217240000049OUNCE  01CANADA DRY CRANBERRY     2LT                      N  00032901 0000P SGRP08DAVEWKDD
I0317D100821211240000000377825021636080000000007800015646SEVEN-UP   0008       2LT010003290000001217240000049OUNCE  01CANADA DRY CRANBERRY     2LT                      N  00032901 0000P SGRP08DAVEWKDD
I0317D100821211240000000377825021636080000000007800018046SEVEN-UP   0008       2LT010003290000001217240000049OUNCE  01VERNOR'S 2 LT                                     N  00032901 0000P SGRP08DAVEWKDD
I0317D100821211240000000377825021636080000000007800018246SEVEN-UP   0008       2LT010003290000001217240000049OUNCE  01VERNOR'S ZERO 2LT                                 N  00032901 0000P SGRP08DAVEWKDD
I0323D10082      000000000000502163601                              0000          000000000000001217240000000       00      PRICE CHANGES                               N  00000000 0000P SGRP08DAVEWKDD
I0323D100821211240000000377825021636030000000007800000034SEVEN-UP   0008       2LT010003290000001217240000049OUNCE  017UP 2LT                                           N  00032901 0000P SGRP08DAVEWKDD
I0323D100821211240000000377825021636030000000007800000075SEVEN-UP   0008       2LT010003290000001217240000049OUNCE  017UP ZERO 2LT                                      N  00032901 0000P SGRP08DAVEWKDD
I0323D100821211240000000377825021636030000000007800000531SEVEN-UP   0008       2LT010003290000001217240000049OUNCE  017UP 2LT CHERRY                                    N  00032901 0000P SGRP08DAVEWKDD
I0323D100821211240000000377825021636030000000007800000831SEVEN-UP   0008       2LT010003290000001217240000049OUNCE  017UP ZERO CHERRY 2LT                               N  00032901 0000P SGRP08DAVEWKDD
I0323D100821211240000000377825021636030000000007800001646SEVEN-UP   0008       2LT010003290000001217240000049OUNCE  01SQUIRT 2LT                                        N  00032901 0000P SGRP08DAVEWKDD
I0323D100821211240000000377825021636030000000007800001746SEVEN-UP   0008       2LT010003290000001217240000049OUNCE  01SQUIRT ZERO 2LT                                   N  00032901 0000P SGRP08DAVEWKDD
I0323D100821211240000000377825021636040000000007800000408SEVEN-UP   0008       2LT010003290000001217240000049OUNCE  01HAWAIIAN PUNCH RED                                N  00032901 0000P SGRP08DAVEWKDD
I0323D100821211240000000377825021636040000000007800002036SEVEN-UP   0008       2LT010003290000001217240000049OUNCE  01TAHITIAN TREAT 2LT       FRUIT PUNCH              N  00032901 0000P SGRP08DAVEWKDD
I0323D100821211240000000377825021636040000000007800003180SEVEN-UP   0008       2LT010003290000001217240000049OUNCE  01SUNKIST 2LT STRAWBERRY   LEMONADE                 N  00032901 0000P SGRP08DAVEWKDD
I0323D100821211240000000377825021636040000000007800005246SEVEN-UP   0008       2LT010003290000001217240000049OUNCE  01A&W 2LT ROOT BEER                                 N  00032901 0000P SGRP08DAVEWKDD
I0323D100821211240000000377825021636040000000007800005446SEVEN-UP   0008       2LT010003290000001217240000049OUNCE  01A&W 2LT CREAM SODA                                N  00032901 0000P SGRP08DAVEWKDD
I0323D100821211240000000377825021636040000000007800011646SEVEN-UP   0008       2LT010003290000001217240000049OUNCE  01SUNKIST 2LT GRAPE                                 N  00032901 0000P SGRP08DAVEWKDD
I0323D100821211240000000377825021636050000000007800005346SEVEN-UP   0008       2LT010003290000001217240000049OUNCE  01A&W 2LT ROOTBEER         ZERO SUGAR               N  00032901 0000P SGRP08DAVEWKDD
I0323D100821211240000000377825021636050000000007800005546SEVEN-UP   0008       2LT010003290000001217240000049OUNCE  01A&W 2LT ZERO CREAM SODA                           N  00032901 0000P SGRP08DAVEWKDD
I0323D100821211240000000377825021636050000000007800012246SEVEN-UP   0008       2LT010003290000001217240000049OUNCE  01SUNKIST 2LT ZERO SUGAR                            N  00032901 0000P SGRP08DAVEWKDD
I0323D100821211240000000377825021636080000000007800002505SEVEN-UP   0008       2LT010003290000001217240000049OUNCE  01CANADA DRY BLACKBERRY    2LT                      N  00032901 0000P SGRP08DAVEWKDD
I0323D100821211240000000377825021636080000000007800003025SEVEN-UP   0008       2LT010003290000001217240000049OUNCE  01CANADA DRY LEMONADE 2LT                           N  00032901 0000P SGRP08DAVEWKDD
I0323D100821211240000000377825021636080000000007800003328SEVEN-UP   0008       2LT010003290000001217240000049OUNCE  01CANADA DRY 2LT BOLD                               N  00032901 0000P SGRP08DAVEWKDD
I0323D100821211240000000377825021636080000000007800014146SEVEN-UP   0008       2LT010003290000001217240000049OUNCE  01CANADA DRY 2LT ZERO      CRANBERRY GINGERALE      N  00032901 0000P SGRP08DAVEWKDD
I0323D100821211240000000377825021636080000000007800014846SEVEN-UP   0008       2LT010003290000001217240000049OUNCE  01CANADA DRY ZERO 2LT      GINGER ALE               N  00032901 0000P SGRP08DAVEWKDD
I0323D100821211240000000377825021636080000000007800015246SEVEN-UP   0008       2LT010003290000001217240000049OUNCE  01CANADA DRY GINGER ALE    2LT                      N  00032901 0000P SGRP08DAVEWKDD
I0323D100821211240000000377825021636080000000007800015646SEVEN-UP   0008       2LT010003290000001217240000049OUNCE  01CANADA DRY CRANBERRY     2LT                      N  00032901 0000P SGRP08DAVEWKDD
I0323D100821211240000000377825021636080000000007800015646SEVEN-UP   0008       2LT010003290000001217240000049OUNCE  01CANADA DRY CRANBERRY     2LT                      N  00032901 0000P SGRP08DAVEWKDD
I0323D100821211240000000377825021636080000000007800018046SEVEN-UP   0008       2LT010003290000001217240000049OUNCE  01VERNOR'S 2 LT                                     N  00032901 0000P SGRP08DAVEWKDD
I0323D100821211240000000377825021636080000000007800018246SEVEN-UP   0008       2LT010003290000001217240000049OUNCE  01VERNOR'S ZERO 2LT                                 N  00032901 0000P SGRP08DAVEWKDD
I0327D10082      000000000000502163601                              0000          000000000000001217240000000       00      PRICE CHANGES                               N  00000000 0000P SGRP08DAVEWKDD
I0327D100821211240000000287735021636030000000007800000034AKRON SEVEN0008       2LT010003290000001217240000049OUNCE  017UP 2LT                                           N  00032901 0000P SGRP08DAVEWKDD
I0327D100821211240000000287735021636030000000007800000034AKRON SEVEN0008       2LT010003290000001217240000049OUNCE  017UP 2LT                                           N  00032901 0000P SGRP08DAVEWKDD
I0327D100821211240000000287735021636030000000007800000075AKRON SEVEN0008       2LT010003290000001217240000049OUNCE  017UP ZERO 2LT                                      N  00032901 0000P SGRP08DAVEWKDD
I0327D100821211240000000287735021636030000000007800000075AKRON SEVEN0008       2LT010003290000001217240000049OUNCE  017UP ZERO 2LT                                      N  00032901 0000P SGRP08DAVEWKDD
I0327D100821211240000000287735021636030000000007800000531AKRON SEVEN0008       2LT010003290000001217240000049OUNCE  017UP 2LT CHERRY                                    N  00032901 0000P SGRP08DAVEWKDD
I0327D100821211240000000287735021636030000000007800000531AKRON SEVEN0008       2LT010003290000001217240000049OUNCE  017UP 2LT CHERRY                                    N  00032901 0000P SGRP08DAVEWKDD
I0327D100821211240000000287735021636030000000007800000831AKRON SEVEN0008       2LT010003290000001217240000049OUNCE  017UP ZERO CHERRY 2LT                               N  00032901 0000P SGRP08DAVEWKDD
I0327D100821211240000000287735021636030000000007800000831AKRON SEVEN0008       2LT010003290000001217240000049OUNCE  017UP ZERO CHERRY 2LT                               N  00032901 0000P SGRP08DAVEWKDD
I0327D100821211240000000287735021636030000000007800001646AKRON SEVEN0008       2LT010003290000001217240000049OUNCE  01SQUIRT 2LT                                        N  00032901 0000P SGRP08DAVEWKDD
I0327D100821211240000000287735021636030000000007800001646AKRON SEVEN0008       2LT010003290000001217240000049OUNCE  01SQUIRT 2LT                                        N  00032901 0000P SGRP08DAVEWKDD
I0327D100821211240000000287735021636030000000007800001746AKRON SEVEN0008       2LT010003290000001217240000049OUNCE  01SQUIRT ZERO 2LT                                   N  00032901 0000P SGRP08DAVEWKDD
I0327D100821211240000000287735021636030000000007800001746AKRON SEVEN0008       2LT010003290000001217240000049OUNCE  01SQUIRT ZERO 2LT                                   N  00032901 0000P SGRP08DAVEWKDD
I0327D100821211240000000287735021636040000000007800000408AKRON SEVEN0008       2LT010003290000001217240000049OUNCE  01HAWAIIAN PUNCH RED                                N  00032901 0000P SGRP08DAVEWKDD
I0327D100821211240000000287735021636040000000007800000408AKRON SEVEN0008       2LT010003290000001217240000049OUNCE  01HAWAIIAN PUNCH RED                                N  00032901 0000P SGRP08DAVEWKDD
I0327D100821211240000000287735021636040000000007800002036AKRON SEVEN0008       2LT010003290000001217240000049OUNCE  01TAHITIAN TREAT 2LT       FRUIT PUNCH              N  00032901 0000P SGRP08DAVEWKDD
I0327D100821211240000000287735021636040000000007800002036AKRON SEVEN0008       2LT010003290000001217240000049OUNCE  01TAHITIAN TREAT 2LT       FRUIT PUNCH              N  00032901 0000P SGRP08DAVEWKDD
I0327D100821211240000000287735021636040000000007800003180AKRON SEVEN0008       2LT010003290000001217240000049OUNCE  01SUNKIST 2LT STRAWBERRY   LEMONADE                 N  00032901 0000P SGRP08DAVEWKDD
I0327D100821211240000000287735021636040000000007800005246AKRON SEVEN0008       2LT010003290000001217240000049OUNCE  01A&W 2LT ROOT BEER                                 N  00032901 0000P SGRP08DAVEWKDD
I0327D100821211240000000287735021636040000000007800005246AKRON SEVEN0008       2LT010003290000001217240000049OUNCE  01A&W 2LT ROOT BEER                                 N  00032901 0000P SGRP08DAVEWKDD
I0327D100821211240000000287735021636040000000007800005446AKRON SEVEN0008       2LT010003290000001217240000049OUNCE  01A&W 2LT CREAM SODA                                N  00032901 0000P SGRP08DAVEWKDD
I0327D100821211240000000287735021636040000000007800005446AKRON SEVEN0008       2LT010003290000001217240000049OUNCE  01A&W 2LT CREAM SODA                                N  00032901 0000P SGRP08DAVEWKDD
I0327D100821211240000000287735021636040000000007800011646AKRON SEVEN0008       2LT010003290000001217240000049OUNCE  01SUNKIST 2LT GRAPE                                 N  00032901 0000P SGRP08DAVEWKDD
I0327D100821211240000000287735021636040000000007800011646AKRON SEVEN0008       2LT010003290000001217240000049OUNCE  01SUNKIST 2LT GRAPE                                 N  00032901 0000P SGRP08DAVEWKDD
I0327D100821211240000000287735021636050000000007800005346AKRON SEVEN0008       2LT010003290000001217240000049OUNCE  01A&W 2LT ROOTBEER         ZERO SUGAR               N  00032901 0000P SGRP08DAVEWKDD
I0327D100821211240000000287735021636050000000007800005346AKRON SEVEN0008       2LT010003290000001217240000049OUNCE  01A&W 2LT ROOTBEER         ZERO SUGAR               N  00032901 0000P SGRP08DAVEWKDD
I0327D100821211240000000287735021636050000000007800005546AKRON SEVEN0008       2LT010003290000001217240000049OUNCE  01A&W 2LT ZERO CREAM SODA                           N  00032901 0000P SGRP08DAVEWKDD
I0327D100821211240000000287735021636050000000007800005546AKRON SEVEN0008       2LT010003290000001217240000049OUNCE  01A&W 2LT ZERO CREAM SODA                           N  00032901 0000P SGRP08DAVEWKDD
I0327D100821211240000000287735021636050000000007800012246AKRON SEVEN0008       2LT010003290000001217240000049OUNCE  01SUNKIST 2LT ZERO SUGAR                            N  00032901 0000P SGRP08DAVEWKDD
I0327D100821211240000000287735021636050000000007800012246AKRON SEVEN0008       2LT010003290000001217240000049OUNCE  01SUNKIST 2LT ZERO SUGAR                            N  00032901 0000P SGRP08DAVEWKDD
I0327D100821211240000000287735021636080000000007800002505AKRON SEVEN0008       2LT010003290000001217240000049OUNCE  01CANADA DRY BLACKBERRY    2LT                      N  00032901 0000P SGRP08DAVEWKDD
I0327D100821211240000000287735021636080000000007800003025AKRON SEVEN0008       2LT010003290000001217240000049OUNCE  01CANADA DRY LEMONADE 2LT                           N  00032901 0000P SGRP08DAVEWKDD
I0327D100821211240000000287735021636080000000007800003328AKRON SEVEN0008       2LT010003290000001217240000049OUNCE  01CANADA DRY 2LT BOLD                               N  00032901 0000P SGRP08DAVEWKDD
I0327D100821211240000000287735021636080000000007800014146AKRON SEVEN0008       2LT010003290000001217240000049OUNCE  01CANADA DRY 2LT ZERO      CRANBERRY GINGERALE      N  00032901 0000P SGRP08DAVEWKDD
I0327D100821211240000000287735021636080000000007800014146AKRON SEVEN0008       2LT010003290000001217240000049OUNCE  01CANADA DRY 2LT ZERO      CRANBERRY GINGERALE      N  00032901 0000P SGRP08DAVEWKDD
I0327D100821211240000000287735021636080000000007800014846AKRON SEVEN0008       2LT010003290000001217240000049OUNCE  01CANADA DRY ZERO 2LT      GINGER ALE               N  00032901 0000P SGRP08DAVEWKDD
I0327D100821211240000000287735021636080000000007800014846AKRON SEVEN0008       2LT010003290000001217240000049OUNCE  01CANADA DRY ZERO 2LT      GINGER ALE               N  00032901 0000P SGRP08DAVEWKDD
I0327D100821211240000000287735021636080000000007800015246AKRON SEVEN0008       2LT010003290000001217240000049OUNCE  01CANADA DRY GINGER ALE    2LT                      N  00032901 0000P SGRP08DAVEWKDD
I0327D100821211240000000287735021636080000000007800015246AKRON SEVEN0008       2LT010003290000001217240000049OUNCE  01CANADA DRY GINGER ALE    2LT                      N  00032901 0000P SGRP08DAVEWKDD
I0327D100821211240000000287735021636080000000007800015646AKRON SEVEN0008       2LT010003290000001217240000049OUNCE  01CANADA DRY CRANBERRY     2LT                      N  00032901 0000P SGRP08DAVEWKDD
I0327D100821211240000000287735021636080000000007800015646AKRON SEVEN0008       2LT010003290000001217240000049OUNCE  01CANADA DRY CRANBERRY     2LT                      N  00032901 0000P SGRP08DAVEWKDD
I0327D100821211240000000287735021636080000000007800018046AKRON SEVEN0008       2LT010003290000001217240000049OUNCE  01VERNOR'S 2 LT                                     N  00032901 0000P SGRP08DAVEWKDD
I0327D100821211240000000287735021636080000000007800018046AKRON SEVEN0008       2LT010003290000001217240000049OUNCE  01VERNOR'S 2 LT                                     N  00032901 0000P SGRP08DAVEWKDD
I0327D100821211240000000287735021636080000000007800018246AKRON SEVEN0008       2LT010003290000001217240000049OUNCE  01VERNOR'S ZERO 2LT                                 N  00032901 0000P SGRP08DAVEWKDD
I0327D100821211240000000287735021636080000000007800018246AKRON SEVEN0008       2LT010003290000001217240000049OUNCE  01VERNOR'S ZERO 2LT                                 N  00032901 0000P SGRP08DAVEWKDD
I0328D10082      000000000000502163601                              0000          000000000000001217240000000       00      PRICE CHANGES                               N  00000000 0000P SGRP08DAVEWKDD
I0328D100821211240000000377825021636030000000007800000034SEVEN-UP   0008       2LT010003290000001217240000049OUNCE  017UP 2LT                                           N  00032901 0000P SGRP08DAVEWKDD
I0328D100821211240000000377825021636030000000007800000075SEVEN-UP   0008       2LT010003290000001217240000049OUNCE  017UP ZERO 2LT                                      N  00032901 0000P SGRP08DAVEWKDD
I0328D100821211240000000377825021636030000000007800000531SEVEN-UP   0008       2LT010003290000001217240000049OUNCE  017UP 2LT CHERRY                                    N  00032901 0000P SGRP08DAVEWKDD
I0328D100821211240000000377825021636030000000007800000831SEVEN-UP   0008       2LT010003290000001217240000049OUNCE  017UP ZERO CHERRY 2LT                               N  00032901 0000P SGRP08DAVEWKDD
I0328D100821211240000000377825021636030000000007800001646SEVEN-UP   0008       2LT010003290000001217240000049OUNCE  01SQUIRT 2LT                                        N  00032901 0000P SGRP08DAVEWKDD
I0328D100821211240000000377825021636030000000007800001746SEVEN-UP   0008       2LT010003290000001217240000049OUNCE  01SQUIRT ZERO 2LT                                   N  00032901 0000P SGRP08DAVEWKDD
I0328D100821211240000000377825021636040000000007800000408SEVEN-UP   0008       2LT010003290000001217240000049OUNCE  01HAWAIIAN PUNCH RED                                N  00032901 0000P SGRP08DAVEWKDD
I0328D100821211240000000377825021636040000000007800002036SEVEN-UP   0008       2LT010003290000001217240000049OUNCE  01TAHITIAN TREAT 2LT       FRUIT PUNCH              N  00032901 0000P SGRP08DAVEWKDD
I0328D100821211240000000377825021636040000000007800002036SEVEN-UP   0008       2LT010003290000001217240000049OUNCE  01TAHITIAN TREAT 2LT       FRUIT PUNCH              N  00032901 0000P SGRP08DAVEWKDD
I0328D100821211240000000377825021636040000000007800003180SEVEN-UP   0008       2LT010003290000001217240000049OUNCE  01SUNKIST 2LT STRAWBERRY   LEMONADE                 N  00032901 0000P SGRP08DAVEWKDD
I0328D100821211240000000377825021636040000000007800005246SEVEN-UP   0008       2LT010003290000001217240000049OUNCE  01A&W 2LT ROOT BEER                                 N  00032901 0000P SGRP08DAVEWKDD
I0328D100821211240000000377825021636040000000007800005446SEVEN-UP   0008       2LT010003290000001217240000049OUNCE  01A&W 2LT CREAM SODA                                N  00032901 0000P SGRP08DAVEWKDD
I0328D100821211240000000377825021636040000000007800011646SEVEN-UP   0008       2LT010003290000001217240000049OUNCE  01SUNKIST 2LT GRAPE                                 N  00032901 0000P SGRP08DAVEWKDD
I0328D100821211240000000377825021636050000000007800005346SEVEN-UP   0008       2LT010003290000001217240000049OUNCE  01A&W 2LT ROOTBEER         ZERO SUGAR               N  00032901 0000P SGRP08DAVEWKDD
I0328D100821211240000000377825021636050000000007800005546SEVEN-UP   0008       2LT010003290000001217240000049OUNCE  01A&W 2LT ZERO CREAM SODA                           N  00032901 0000P SGRP08DAVEWKDD
I0328D100821211240000000377825021636050000000007800012246SEVEN-UP   0008       2LT010003290000001217240000049OUNCE  01SUNKIST 2LT ZERO SUGAR                            N  00032901 0000P SGRP08DAVEWKDD
I0328D100821211240000000377825021636080000000007800002505SEVEN-UP   0008       2LT010003290000001217240000049OUNCE  01CANADA DRY BLACKBERRY    2LT                      N  00032901 0000P SGRP08DAVEWKDD
I0328D100821211240000000377825021636080000000007800003025SEVEN-UP   0008       2LT010003290000001217240000049OUNCE  01CANADA DRY LEMONADE 2LT                           N  00032901 0000P SGRP08DAVEWKDD
I0328D100821211240000000377825021636080000000007800003328SEVEN-UP   0008       2LT010003290000001217240000049OUNCE  01CANADA DRY 2LT BOLD                               N  00032901 0000P SGRP08DAVEWKDD
I0328D100821211240000000377825021636080000000007800014146SEVEN-UP   0008       2LT010003290000001217240000049OUNCE  01CANADA DRY 2LT ZERO      CRANBERRY GINGERALE      N  00032901 0000P SGRP08DAVEWKDD
I0328D100821211240000000377825021636080000000007800014146SEVEN-UP   0008       2LT010003290000001217240000049OUNCE  01CANADA DRY 2LT ZERO      CRANBERRY GINGERALE      N  00032901 0000P SGRP08DAVEWKDD
I0328D100821211240000000377825021636080000000007800014846SEVEN-UP   0008       2LT010003290000001217240000049OUNCE  01CANADA DRY ZERO 2LT      GINGER ALE               N  00032901 0000P SGRP08DAVEWKDD
I0328D100821211240000000377825021636080000000007800014846SEVEN-UP   0008       2LT010003290000001217240000049OUNCE  01CANADA DRY ZERO 2LT      GINGER ALE               N  00032901 0000P SGRP08DAVEWKDD
I0328D100821211240000000377825021636080000000007800015246SEVEN-UP   0008       2LT010003290000001217240000049OUNCE  01CANADA DRY GINGER ALE    2LT                      N  00032901 0000P SGRP08DAVEWKDD
I0328D100821211240000000377825021636080000000007800015246SEVEN-UP   0008       2LT010003290000001217240000049OUNCE  01CANADA DRY GINGER ALE    2LT                      N  00032901 0000P SGRP08DAVEWKDD
I0328D100821211240000000377825021636080000000007800015646SEVEN-UP   0008       2LT010003290000001217240000049OUNCE  01CANADA DRY CRANBERRY     2LT                      N  00032901 0000P SGRP08DAVEWKDD
I0328D100821211240000000377825021636080000000007800015646SEVEN-UP   0008       2LT010003290000001217240000049OUNCE  01CANADA DRY CRANBERRY     2LT                      N  00032901 0000P SGRP08DAVEWKDD
I0328D100821211240000000377825021636080000000007800018046SEVEN-UP   0008       2LT010003290000001217240000049OUNCE  01VERNOR'S 2 LT                                     N  00032901 0000P SGRP08DAVEWKDD
I0328D100821211240000000377825021636080000000007800018246SEVEN-UP   0008       2LT010003290000001217240000049OUNCE  01VERNOR'S ZERO 2LT                                 N  00032901 0000P SGRP08DAVEWKDD
I0335D10082      000000000000502163601                              0000          000000000000001217240000000       00      PRICE CHANGES                               N  00000000 0000P SGRP08DAVEWKDD
I0335D100821211240000000377825021636030000000007800000034SEVEN-UP   0008       2LT010003290000001217240000049OUNCE  017UP 2LT                                           N  00032901 0000P SGRP08DAVEWKDD
I0335D100821211240000000377825021636030000000007800000075SEVEN-UP   0008       2LT010003290000001217240000049OUNCE  017UP ZERO 2LT                                      N  00032901 0000P SGRP08DAVEWKDD
I0335D100821211240000000377825021636030000000007800000531SEVEN-UP   0008       2LT010003290000001217240000049OUNCE  017UP 2LT CHERRY                                    N  00032901 0000P SGRP08DAVEWKDD
I0335D100821211240000000377825021636030000000007800000831SEVEN-UP   0008       2LT010003290000001217240000049OUNCE  017UP ZERO CHERRY 2LT                               N  00032901 0000P SGRP08DAVEWKDD
I0335D100821211240000000377825021636030000000007800001646SEVEN-UP   0008       2LT010003290000001217240000049OUNCE  01SQUIRT 2LT                                        N  00032901 0000P SGRP08DAVEWKDD
I0335D100821211240000000377825021636030000000007800001746SEVEN-UP   0008       2LT010003290000001217240000049OUNCE  01SQUIRT ZERO 2LT                                   N  00032901 0000P SGRP08DAVEWKDD
I0335D100821211240000000377825021636040000000007800000408SEVEN-UP   0008       2LT010003290000001217240000049OUNCE  01HAWAIIAN PUNCH RED                                N  00032901 0000P SGRP08DAVEWKDD
I0335D100821211240000000377825021636040000000007800002036SEVEN-UP   0008       2LT010003290000001217240000049OUNCE  01TAHITIAN TREAT 2LT       FRUIT PUNCH              N  00032901 0000P SGRP08DAVEWKDD
I0335D100821211240000000377825021636040000000007800002036SEVEN-UP   0008       2LT010003290000001217240000049OUNCE  01TAHITIAN TREAT 2LT       FRUIT PUNCH              N  00032901 0000P SGRP08DAVEWKDD
I0335D100821211240000000377825021636040000000007800003180SEVEN-UP   0008       2LT010003290000001217240000049OUNCE  01SUNKIST 2LT STRAWBERRY   LEMONADE                 N  00032901 0000P SGRP08DAVEWKDD
I0335D100821211240000000377825021636040000000007800005246SEVEN-UP   0008       2LT010003290000001217240000049OUNCE  01A&W 2LT ROOT BEER                                 N  00032901 0000P SGRP08DAVEWKDD
I0335D100821211240000000377825021636040000000007800005446SEVEN-UP   0008       2LT010003290000001217240000049OUNCE  01A&W 2LT CREAM SODA                                N  00032901 0000P SGRP08DAVEWKDD
I0335D100821211240000000377825021636040000000007800011646SEVEN-UP   0008       2LT010003290000001217240000049OUNCE  01SUNKIST 2LT GRAPE                                 N  00032901 0000P SGRP08DAVEWKDD
I0335D100821211240000000377825021636050000000007800005346SEVEN-UP   0008       2LT010003290000001217240000049OUNCE  01A&W 2LT ROOTBEER         ZERO SUGAR               N  00032901 0000P SGRP08DAVEWKDD
I0335D100821211240000000377825021636050000000007800005546SEVEN-UP   0008       2LT010003290000001217240000049OUNCE  01A&W 2LT ZERO CREAM SODA                           N  00032901 0000P SGRP08DAVEWKDD
I0335D100821211240000000377825021636050000000007800012246SEVEN-UP   0008       2LT010003290000001217240000049OUNCE  01SUNKIST 2LT ZERO SUGAR                            N  00032901 0000P SGRP08DAVEWKDD
I0335D100821211240000000377825021636080000000007800002505SEVEN-UP   0008       2LT010003290000001217240000049OUNCE  01CANADA DRY BLACKBERRY    2LT                      N  00032901 0000P SGRP08DAVEWKDD
I0335D100821211240000000377825021636080000000007800003025SEVEN-UP   0008       2LT010003290000001217240000049OUNCE  01CANADA DRY LEMONADE 2LT                           N  00032901 0000P SGRP08DAVEWKDD
I0335D100821211240000000377825021636080000000007800003328SEVEN-UP   0008       2LT010003290000001217240000049OUNCE  01CANADA DRY 2LT BOLD                               N  00032901 0000P SGRP08DAVEWKDD
I0335D100821211240000000377825021636080000000007800014146SEVEN-UP   0008       2LT010003290000001217240000049OUNCE  01CANADA DRY 2LT ZERO      CRANBERRY GINGERALE      N  00032901 0000P SGRP08DAVEWKDD
I0335D100821211240000000377825021636080000000007800014146SEVEN-UP   0008       2LT010003290000001217240000049OUNCE  01CANADA DRY 2LT ZERO      CRANBERRY GINGERALE      N  00032901 0000P SGRP08DAVEWKDD
I0335D100821211240000000377825021636080000000007800014846SEVEN-UP   0008       2LT010003290000001217240000049OUNCE  01CANADA DRY ZERO 2LT      GINGER ALE               N  00032901 0000P SGRP08DAVEWKDD
I0335D100821211240000000377825021636080000000007800014846SEVEN-UP   0008       2LT010003290000001217240000049OUNCE  01CANADA DRY ZERO 2LT      GINGER ALE               N  00032901 0000P SGRP08DAVEWKDD
I0335D100821211240000000377825021636080000000007800015246SEVEN-UP   0008       2LT010003290000001217240000049OUNCE  01CANADA DRY GINGER ALE    2LT                      N  00032901 0000P SGRP08DAVEWKDD
I0335D100821211240000000377825021636080000000007800015246SEVEN-UP   0008       2LT010003290000001217240000049OUNCE  01CANADA DRY GINGER ALE    2LT                      N  00032901 0000P SGRP08DAVEWKDD
I0335D100821211240000000377825021636080000000007800015646SEVEN-UP   0008       2LT010003290000001217240000049OUNCE  01CANADA DRY CRANBERRY     2LT                      N  00032901 0000P SGRP08DAVEWKDD
I0335D100821211240000000377825021636080000000007800015646SEVEN-UP   0008       2LT010003290000001217240000049OUNCE  01CANADA DRY CRANBERRY     2LT                      N  00032901 0000P SGRP08DAVEWKDD
I0335D100821211240000000377825021636080000000007800018046SEVEN-UP   0008       2LT010003290000001217240000049OUNCE  01VERNOR'S 2 LT                                     N  00032901 0000P SGRP08DAVEWKDD
I0335D100821211240000000377825021636080000000007800018246SEVEN-UP   0008       2LT010003290000001217240000049OUNCE  01VERNOR'S ZERO 2LT                                 N  00032901 0000P SGRP08DAVEWKDD
I0336D10082      000000000000502163601                              0000          000000000000001217240000000       00      PRICE CHANGES                               N  00000000 0000P SGRP08DAVEWKDD
I0336D100821211240000000377825021636030000000007800000034SEVEN-UP   0008       2LT010003290000001217240000049OUNCE  017UP 2LT                                           N  00032901 0000P SGRP08DAVEWKDD
I0336D100821211240000000377825021636030000000007800000075SEVEN-UP   0008       2LT010003290000001217240000049OUNCE  017UP ZERO 2LT                                      N  00032901 0000P SGRP08DAVEWKDD
I0336D100821211240000000377825021636030000000007800000531SEVEN-UP   0008       2LT010003290000001217240000049OUNCE  017UP 2LT CHERRY                                    N  00032901 0000P SGRP08DAVEWKDD
I0336D100821211240000000377825021636030000000007800000831SEVEN-UP   0008       2LT010003290000001217240000049OUNCE  017UP ZERO CHERRY 2LT                               N  00032901 0000P SGRP08DAVEWKDD
I0336D100821211240000000377825021636030000000007800001646SEVEN-UP   0008       2LT010003290000001217240000049OUNCE  01SQUIRT 2LT                                        N  00032901 0000P SGRP08DAVEWKDD
I0336D100821211240000000377825021636030000000007800001746SEVEN-UP   0008       2LT010003290000001217240000049OUNCE  01SQUIRT ZERO 2LT                                   N  00032901 0000P SGRP08DAVEWKDD
I0336D100821211240000000377825021636040000000007800000408SEVEN-UP   0008       2LT010003290000001217240000049OUNCE  01HAWAIIAN PUNCH RED                                N  00032901 0000P SGRP08DAVEWKDD
I0336D100821211240000000377825021636040000000007800002036SEVEN-UP   0008       2LT010003290000001217240000049OUNCE  01TAHITIAN TREAT 2LT       FRUIT PUNCH              N  00032901 0000P SGRP08DAVEWKDD
I0336D100821211240000000377825021636040000000007800002036SEVEN-UP   0008       2LT010003290000001217240000049OUNCE  01TAHITIAN TREAT 2LT       FRUIT PUNCH              N  00032901 0000P SGRP08DAVEWKDD
I0336D100821211240000000377825021636040000000007800003180SEVEN-UP   0008       2LT010003290000001217240000049OUNCE  01SUNKIST 2LT STRAWBERRY   LEMONADE                 N  00032901 0000P SGRP08DAVEWKDD
I0336D100821211240000000377825021636040000000007800005246SEVEN-UP   0008       2LT010003290000001217240000049OUNCE  01A&W 2LT ROOT BEER                                 N  00032901 0000P SGRP08DAVEWKDD
I0336D100821211240000000377825021636040000000007800005446SEVEN-UP   0008       2LT010003290000001217240000049OUNCE  01A&W 2LT CREAM SODA                                N  00032901 0000P SGRP08DAVEWKDD
I0336D100821211240000000377825021636040000000007800011646SEVEN-UP   0008       2LT010003290000001217240000049OUNCE  01SUNKIST 2LT GRAPE                                 N  00032901 0000P SGRP08DAVEWKDD
I0336D100821211240000000377825021636050000000007800005346SEVEN-UP   0008       2LT010003290000001217240000049OUNCE  01A&W 2LT ROOTBEER         ZERO SUGAR               N  00032901 0000P SGRP08DAVEWKDD
I0336D100821211240000000377825021636050000000007800005546SEVEN-UP   0008       2LT010003290000001217240000049OUNCE  01A&W 2LT ZERO CREAM SODA                           N  00032901 0000P SGRP08DAVEWKDD
I0336D100821211240000000377825021636050000000007800012246SEVEN-UP   0008       2LT010003290000001217240000049OUNCE  01SUNKIST 2LT ZERO SUGAR                            N  00032901 0000P SGRP08DAVEWKDD
I0336D100821211240000000377825021636080000000007800002505SEVEN-UP   0008       2LT010003290000001217240000049OUNCE  01CANADA DRY BLACKBERRY    2LT                      N  00032901 0000P SGRP08DAVEWKDD
I0336D100821211240000000377825021636080000000007800003025SEVEN-UP   0008       2LT010003290000001217240000049OUNCE  01CANADA DRY LEMONADE 2LT                           N  00032901 0000P SGRP08DAVEWKDD
I0336D100821211240000000377825021636080000000007800003328SEVEN-UP   0008       2LT010003290000001217240000049OUNCE  01CANADA DRY 2LT BOLD                               N  00032901 0000P SGRP08DAVEWKDD
I0336D100821211240000000377825021636080000000007800014146SEVEN-UP   0008       2LT010003290000001217240000049OUNCE  01CANADA DRY 2LT ZERO      CRANBERRY GINGERALE      N  00032901 0000P SGRP08DAVEWKDD
I0336D100821211240000000377825021636080000000007800014146SEVEN-UP   0008       2LT010003290000001217240000049OUNCE  01CANADA DRY 2LT ZERO      CRANBERRY GINGERALE      N  00032901 0000P SGRP08DAVEWKDD
I0336D100821211240000000377825021636080000000007800014846SEVEN-UP   0008       2LT010003290000001217240000049OUNCE  01CANADA DRY ZERO 2LT      GINGER ALE               N  00032901 0000P SGRP08DAVEWKDD
I0336D100821211240000000377825021636080000000007800014846SEVEN-UP   0008       2LT010003290000001217240000049OUNCE  01CANADA DRY ZERO 2LT      GINGER ALE               N  00032901 0000P SGRP08DAVEWKDD
I0336D100821211240000000377825021636080000000007800015246SEVEN-UP   0008       2LT010003290000001217240000049OUNCE  01CANADA DRY GINGER ALE    2LT                      N  00032901 0000P SGRP08DAVEWKDD
I0336D100821211240000000377825021636080000000007800015246SEVEN-UP   0008       2LT010003290000001217240000049OUNCE  01CANADA DRY GINGER ALE    2LT                      N  00032901 0000P SGRP08DAVEWKDD
I0336D100821211240000000377825021636080000000007800015646SEVEN-UP   0008       2LT010003290000001217240000049OUNCE  01CANADA DRY CRANBERRY     2LT                      N  00032901 0000P SGRP08DAVEWKDD
I0336D100821211240000000377825021636080000000007800015646SEVEN-UP   0008       2LT010003290000001217240000049OUNCE  01CANADA DRY CRANBERRY     2LT                      N  00032901 0000P SGRP08DAVEWKDD
I0336D100821211240000000377825021636080000000007800018046SEVEN-UP   0008       2LT010003290000001217240000049OUNCE  01VERNOR'S 2 LT                                     N  00032901 0000P SGRP08DAVEWKDD
I0336D100821211240000000377825021636080000000007800018246SEVEN-UP   0008       2LT010003290000001217240000049OUNCE  01VERNOR'S ZERO 2LT                                 N  00032901 0000P SGRP08DAVEWKDD
I0371D10082      000000000000502163601                              0000          000000000000001217240000000       00      PRICE CHANGES                               N  00000000 0000P SGRP08DAVEWKDD
I0371D100821211240000000377825021636030000000007800000034SEVEN-UP   0008       2LT010003290000001217240000049OUNCE  017UP 2LT                                           N  00032901 0000P SGRP08DAVEWKDD
I0371D100821211240000000377825021636030000000007800000075SEVEN-UP   0008       2LT010003290000001217240000049OUNCE  017UP ZERO 2LT                                      N  00032901 0000P SGRP08DAVEWKDD
I0371D100821211240000000377825021636030000000007800000531SEVEN-UP   0008       2LT010003290000001217240000049OUNCE  017UP 2LT CHERRY                                    N  00032901 0000P SGRP08DAVEWKDD
I0371D100821211240000000377825021636030000000007800000831SEVEN-UP   0008       2LT010003290000001217240000049OUNCE  017UP ZERO CHERRY 2LT                               N  00032901 0000P SGRP08DAVEWKDD
I0371D100821211240000000377825021636030000000007800001646SEVEN-UP   0008       2LT010003290000001217240000049OUNCE  01SQUIRT 2LT                                        N  00032901 0000P SGRP08DAVEWKDD
I0371D100821211240000000377825021636030000000007800001746SEVEN-UP   0008       2LT010003290000001217240000049OUNCE  01SQUIRT ZERO 2LT                                   N  00032901 0000P SGRP08DAVEWKDD
I0371D100821211240000000377825021636040000000007800000408SEVEN-UP   0008       2LT010003290000001217240000049OUNCE  01HAWAIIAN PUNCH RED                                N  00032901 0000P SGRP08DAVEWKDD
I0371D100821211240000000377825021636040000000007800002036SEVEN-UP   0008       2LT010003290000001217240000049OUNCE  01TAHITIAN TREAT 2LT       FRUIT PUNCH              N  00032901 0000P SGRP08DAVEWKDD
I0371D100821211240000000377825021636040000000007800002036SEVEN-UP   0008       2LT010003290000001217240000049OUNCE  01TAHITIAN TREAT 2LT       FRUIT PUNCH              N  00032901 0000P SGRP08DAVEWKDD
I0371D100821211240000000377825021636040000000007800003180SEVEN-UP   0008       2LT010003290000001217240000049OUNCE  01SUNKIST 2LT STRAWBERRY   LEMONADE                 N  00032901 0000P SGRP08DAVEWKDD
I0371D100821211240000000377825021636040000000007800005246SEVEN-UP   0008       2LT010003290000001217240000049OUNCE  01A&W 2LT ROOT BEER                                 N  00032901 0000P SGRP08DAVEWKDD
I0371D100821211240000000377825021636040000000007800005446SEVEN-UP   0008       2LT010003290000001217240000049OUNCE  01A&W 2LT CREAM SODA                                N  00032901 0000P SGRP08DAVEWKDD
I0371D100821211240000000377825021636040000000007800011646SEVEN-UP   0008       2LT010003290000001217240000049OUNCE  01SUNKIST 2LT GRAPE                                 N  00032901 0000P SGRP08DAVEWKDD
I0371D100821211240000000377825021636050000000007800005346SEVEN-UP   0008       2LT010003290000001217240000049OUNCE  01A&W 2LT ROOTBEER         ZERO SUGAR               N  00032901 0000P SGRP08DAVEWKDD
I0371D100821211240000000377825021636050000000007800005546SEVEN-UP   0008       2LT010003290000001217240000049OUNCE  01A&W 2LT ZERO CREAM SODA                           N  00032901 0000P SGRP08DAVEWKDD
I0371D100821211240000000377825021636050000000007800012246SEVEN-UP   0008       2LT010003290000001217240000049OUNCE  01SUNKIST 2LT ZERO SUGAR                            N  00032901 0000P SGRP08DAVEWKDD
I0371D100821211240000000377825021636080000000007800002505SEVEN-UP   0008       2LT010003290000001217240000049OUNCE  01CANADA DRY BLACKBERRY    2LT                      N  00032901 0000P SGRP08DAVEWKDD
I0371D100821211240000000377825021636080000000007800003025SEVEN-UP   0008       2LT010003290000001217240000049OUNCE  01CANADA DRY LEMONADE 2LT                           N  00032901 0000P SGRP08DAVEWKDD
I0371D100821211240000000377825021636080000000007800003328SEVEN-UP   0008       2LT010003290000001217240000049OUNCE  01CANADA DRY 2LT BOLD                               N  00032901 0000P SGRP08DAVEWKDD
I0371D100821211240000000377825021636080000000007800014146SEVEN-UP   0008       2LT010003290000001217240000049OUNCE  01CANADA DRY 2LT ZERO      CRANBERRY GINGERALE      N  00032901 0000P SGRP08DAVEWKDD
I0371D100821211240000000377825021636080000000007800014146SEVEN-UP   0008       2LT010003290000001217240000049OUNCE  01CANADA DRY 2LT ZERO      CRANBERRY GINGERALE      N  00032901 0000P SGRP08DAVEWKDD
I0371D100821211240000000377825021636080000000007800014846SEVEN-UP   0008       2LT010003290000001217240000049OUNCE  01CANADA DRY ZERO 2LT      GINGER ALE               N  00032901 0000P SGRP08DAVEWKDD
I0371D100821211240000000377825021636080000000007800014846SEVEN-UP   0008       2LT010003290000001217240000049OUNCE  01CANADA DRY ZERO 2LT      GINGER ALE               N  00032901 0000P SGRP08DAVEWKDD
I0371D100821211240000000377825021636080000000007800015246SEVEN-UP   0008       2LT010003290000001217240000049OUNCE  01CANADA DRY GINGER ALE    2LT                      N  00032901 0000P SGRP08DAVEWKDD
I0371D100821211240000000377825021636080000000007800015246SEVEN-UP   0008       2LT010003290000001217240000049OUNCE  01CANADA DRY GINGER ALE    2LT                      N  00032901 0000P SGRP08DAVEWKDD
I0371D100821211240000000377825021636080000000007800015646SEVEN-UP   0008       2LT010003290000001217240000049OUNCE  01CANADA DRY CRANBERRY     2LT                      N  00032901 0000P SGRP08DAVEWKDD
I0371D100821211240000000377825021636080000000007800015646SEVEN-UP   0008       2LT010003290000001217240000049OUNCE  01CANADA DRY CRANBERRY     2LT                      N  00032901 0000P SGRP08DAVEWKDD
I0371D100821211240000000377825021636080000000007800018046SEVEN-UP   0008       2LT010003290000001217240000049OUNCE  01VERNOR'S 2 LT                                     N  00032901 0000P SGRP08DAVEWKDD
I0371D100821211240000000377825021636080000000007800018246SEVEN-UP   0008       2LT010003290000001217240000049OUNCE  01VERNOR'S ZERO 2LT                                 N  00032901 0000P SGRP08DAVEWKDD
I5809D10082      000000000000502163601                              0000          000000000000001217240000000       00      PRICE CHANGES                               N  00000000 0000P SGRP08DAVEWKDD
I5809D100821211240000000377825021636030000000007800000034SEVEN-UP   0008       2LT010003290000001217240000049OUNCE  017UP 2LT                                           N  00032901 0000P SGRP08DAVEWKDD
I5809D100821211240000000377825021636030000000007800000075SEVEN-UP   0008       2LT010003290000001217240000049OUNCE  017UP ZERO 2LT                                      N  00032901 0000P SGRP08DAVEWKDD
I5809D100821211240000000377825021636030000000007800000531SEVEN-UP   0008       2LT010003290000001217240000049OUNCE  017UP 2LT CHERRY                                    N  00032901 0000P SGRP08DAVEWKDD
I5809D100821211240000000377825021636030000000007800000831SEVEN-UP   0008       2LT010003290000001217240000049OUNCE  017UP ZERO CHERRY 2LT                               N  00032901 0000P SGRP08DAVEWKDD
I5809D100821211240000000377825021636030000000007800001646SEVEN-UP   0008       2LT010003290000001217240000049OUNCE  01SQUIRT 2LT                                        N  00032901 0000P SGRP08DAVEWKDD
I5809D100821211240000000377825021636030000000007800001746SEVEN-UP   0008       2LT010003290000001217240000049OUNCE  01SQUIRT ZERO 2LT                                   N  00032901 0000P SGRP08DAVEWKDD
I5809D100821211240000000377825021636040000000007800000408SEVEN-UP   0008       2LT010003290000001217240000049OUNCE  01HAWAIIAN PUNCH RED                                N  00032901 0000P SGRP08DAVEWKDD
I5809D100821211240000000377825021636040000000007800002036SEVEN-UP   0008       2LT010003290000001217240000049OUNCE  01TAHITIAN TREAT 2LT       FRUIT PUNCH              N  00032901 0000P SGRP08DAVEWKDD
I5809D100821211240000000377825021636040000000007800002036SEVEN-UP   0008       2LT010003290000001217240000049OUNCE  01TAHITIAN TREAT 2LT       FRUIT PUNCH              N  00032901 0000P SGRP08DAVEWKDD
I5809D100821211240000000377825021636040000000007800003180SEVEN-UP   0008       2LT010003290000001217240000049OUNCE  01SUNKIST 2LT STRAWBERRY   LEMONADE                 N  00032901 0000P SGRP08DAVEWKDD
I5809D100821211240000000377825021636040000000007800005246SEVEN-UP   0008       2LT010003290000001217240000049OUNCE  01A&W 2LT ROOT BEER                                 N  00032901 0000P SGRP08DAVEWKDD
I5809D100821211240000000377825021636040000000007800005446SEVEN-UP   0008       2LT010003290000001217240000049OUNCE  01A&W 2LT CREAM SODA                                N  00032901 0000P SGRP08DAVEWKDD
I5809D100821211240000000377825021636040000000007800011646SEVEN-UP   0008       2LT010003290000001217240000049OUNCE  01SUNKIST 2LT GRAPE                                 N  00032901 0000P SGRP08DAVEWKDD
I5809D100821211240000000377825021636050000000007800005346SEVEN-UP   0008       2LT010003290000001217240000049OUNCE  01A&W 2LT ROOTBEER         ZERO SUGAR               N  00032901 0000P SGRP08DAVEWKDD
I5809D100821211240000000377825021636050000000007800005546SEVEN-UP   0008       2LT010003290000001217240000049OUNCE  01A&W 2LT ZERO CREAM SODA                           N  00032901 0000P SGRP08DAVEWKDD
I5809D100821211240000000377825021636050000000007800012246SEVEN-UP   0008       2LT010003290000001217240000049OUNCE  01SUNKIST 2LT ZERO SUGAR                            N  00032901 0000P SGRP08DAVEWKDD
I5809D100821211240000000377825021636080000000007800002505SEVEN-UP   0008       2LT010003290000001217240000049OUNCE  01CANADA DRY BLACKBERRY    2LT                      N  00032901 0000P SGRP08DAVEWKDD
I5809D100821211240000000377825021636080000000007800003025SEVEN-UP   0008       2LT010003290000001217240000049OUNCE  01CANADA DRY LEMONADE 2LT                           N  00032901 0000P SGRP08DAVEWKDD
I5809D100821211240000000377825021636080000000007800003328SEVEN-UP   0008       2LT010003290000001217240000049OUNCE  01CANADA DRY 2LT BOLD                               N  00032901 0000P SGRP08DAVEWKDD
I5809D100821211240000000377825021636080000000007800014146SEVEN-UP   0008       2LT010003290000001217240000049OUNCE  01CANADA DRY 2LT ZERO      CRANBERRY GINGERALE      N  00032901 0000P SGRP08DAVEWKDD
I5809D100821211240000000377825021636080000000007800014146SEVEN-UP   0008       2LT010003290000001217240000049OUNCE  01CANADA DRY 2LT ZERO      CRANBERRY GINGERALE      N  00032901 0000P SGRP08DAVEWKDD
I5809D100821211240000000377825021636080000000007800014846SEVEN-UP   0008       2LT010003290000001217240000049OUNCE  01CANADA DRY ZERO 2LT      GINGER ALE               N  00032901 0000P SGRP08DAVEWKDD
I5809D100821211240000000377825021636080000000007800014846SEVEN-UP   0008       2LT010003290000001217240000049OUNCE  01CANADA DRY ZERO 2LT      GINGER ALE               N  00032901 0000P SGRP08DAVEWKDD
I5809D100821211240000000377825021636080000000007800015246SEVEN-UP   0008       2LT010003290000001217240000049OUNCE  01CANADA DRY GINGER ALE    2LT                      N  00032901 0000P SGRP08DAVEWKDD
I5809D100821211240000000377825021636080000000007800015246SEVEN-UP   0008       2LT010003290000001217240000049OUNCE  01CANADA DRY GINGER ALE    2LT                      N  00032901 0000P SGRP08DAVEWKDD
I5809D100821211240000000377825021636080000000007800015646SEVEN-UP   0008       2LT010003290000001217240000049OUNCE  01CANADA DRY CRANBERRY     2LT                      N  00032901 0000P SGRP08DAVEWKDD
I5809D100821211240000000377825021636080000000007800015646SEVEN-UP   0008       2LT010003290000001217240000049OUNCE  01CANADA DRY CRANBERRY     2LT                      N  00032901 0000P SGRP08DAVEWKDD
I5809D100821211240000000377825021636080000000007800018046SEVEN-UP   0008       2LT010003290000001217240000049OUNCE  01VERNOR'S 2 LT                                     N  00032901 0000P SGRP08DAVEWKDD
I5809D100821211240000000377825021636080000000007800018246SEVEN-UP   0008       2LT010003290000001217240000049OUNCE  01VERNOR'S ZERO 2LT                                 N  00032901 0000P SGRP08DAVEWKDD
I5822D10082      000000000000502163601                              0000          000000000000001217240000000       00      PRICE CHANGES                               N  00000000 0000P SGRP08DAVEWKDD
I5822D100821211240000000377825021636030000000007800000034SEVEN-UP   0008       2LT010003290000001217240000049OUNCE  017UP 2LT                                           N  00032901 0000P SGRP08DAVEWKDD
I5822D100821211240000000377825021636030000000007800000075SEVEN-UP   0008       2LT010003290000001217240000049OUNCE  017UP ZERO 2LT                                      N  00032901 0000P SGRP08DAVEWKDD
I5822D100821211240000000377825021636030000000007800000531SEVEN-UP   0008       2LT010003290000001217240000049OUNCE  017UP 2LT CHERRY                                    N  00032901 0000P SGRP08DAVEWKDD
I5822D100821211240000000377825021636030000000007800000831SEVEN-UP   0008       2LT010003290000001217240000049OUNCE  017UP ZERO CHERRY 2LT                               N  00032901 0000P SGRP08DAVEWKDD
I5822D100821211240000000377825021636030000000007800001646SEVEN-UP   0008       2LT010003290000001217240000049OUNCE  01SQUIRT 2LT                                        N  00032901 0000P SGRP08DAVEWKDD
I5822D100821211240000000377825021636030000000007800001746SEVEN-UP   0008       2LT010003290000001217240000049OUNCE  01SQUIRT ZERO 2LT                                   N  00032901 0000P SGRP08DAVEWKDD
I5822D100821211240000000377825021636040000000007800000408SEVEN-UP   0008       2LT010003290000001217240000049OUNCE  01HAWAIIAN PUNCH RED                                N  00032901 0000P SGRP08DAVEWKDD
I5822D100821211240000000377825021636040000000007800002036SEVEN-UP   0008       2LT010003290000001217240000049OUNCE  01TAHITIAN TREAT 2LT       FRUIT PUNCH              N  00032901 0000P SGRP08DAVEWKDD
I5822D100821211240000000377825021636040000000007800002036SEVEN-UP   0008       2LT010003290000001217240000049OUNCE  01TAHITIAN TREAT 2LT       FRUIT PUNCH              N  00032901 0000P SGRP08DAVEWKDD
I5822D100821211240000000377825021636040000000007800003180SEVEN-UP   0008       2LT010003290000001217240000049OUNCE  01SUNKIST 2LT STRAWBERRY   LEMONADE                 N  00032901 0000P SGRP08DAVEWKDD
I5822D100821211240000000377825021636040000000007800005246SEVEN-UP   0008       2LT010003290000001217240000049OUNCE  01A&W 2LT ROOT BEER                                 N  00032901 0000P SGRP08DAVEWKDD
I5822D100821211240000000377825021636040000000007800005446SEVEN-UP   0008       2LT010003290000001217240000049OUNCE  01A&W 2LT CREAM SODA                                N  00032901 0000P SGRP08DAVEWKDD
I5822D100821211240000000377825021636040000000007800011646SEVEN-UP   0008       2LT010003290000001217240000049OUNCE  01SUNKIST 2LT GRAPE                                 N  00032901 0000P SGRP08DAVEWKDD
I5822D100821211240000000377825021636050000000007800005346SEVEN-UP   0008       2LT010003290000001217240000049OUNCE  01A&W 2LT ROOTBEER         ZERO SUGAR               N  00032901 0000P SGRP08DAVEWKDD
I5822D100821211240000000377825021636050000000007800005546SEVEN-UP   0008       2LT010003290000001217240000049OUNCE  01A&W 2LT ZERO CREAM SODA                           N  00032901 0000P SGRP08DAVEWKDD
I5822D100821211240000000377825021636050000000007800012246SEVEN-UP   0008       2LT010003290000001217240000049OUNCE  01SUNKIST 2LT ZERO SUGAR                            N  00032901 0000P SGRP08DAVEWKDD
I5822D100821211240000000377825021636080000000007800002505SEVEN-UP   0008       2LT010003290000001217240000049OUNCE  01CANADA DRY BLACKBERRY    2LT                      N  00032901 0000P SGRP08DAVEWKDD
I5822D100821211240000000377825021636080000000007800003025SEVEN-UP   0008       2LT010003290000001217240000049OUNCE  01CANADA DRY LEMONADE 2LT                           N  00032901 0000P SGRP08DAVEWKDD
I5822D100821211240000000377825021636080000000007800003328SEVEN-UP   0008       2LT010003290000001217240000049OUNCE  01CANADA DRY 2LT BOLD                               N  00032901 0000P SGRP08DAVEWKDD
I5822D100821211240000000377825021636080000000007800014146SEVEN-UP   0008       2LT010003290000001217240000049OUNCE  01CANADA DRY 2LT ZERO      CRANBERRY GINGERALE      N  00032901 0000P SGRP08DAVEWKDD
I5822D100821211240000000377825021636080000000007800014146SEVEN-UP   0008       2LT010003290000001217240000049OUNCE  01CANADA DRY 2LT ZERO      CRANBERRY GINGERALE      N  00032901 0000P SGRP08DAVEWKDD
I5822D100821211240000000377825021636080000000007800014846SEVEN-UP   0008       2LT010003290000001217240000049OUNCE  01CANADA DRY ZERO 2LT      GINGER ALE               N  00032901 0000P SGRP08DAVEWKDD
I5822D100821211240000000377825021636080000000007800014846SEVEN-UP   0008       2LT010003290000001217240000049OUNCE  01CANADA DRY ZERO 2LT      GINGER ALE               N  00032901 0000P SGRP08DAVEWKDD
I5822D100821211240000000377825021636080000000007800015246SEVEN-UP   0008       2LT010003290000001217240000049OUNCE  01CANADA DRY GINGER ALE    2LT                      N  00032901 0000P SGRP08DAVEWKDD
I5822D100821211240000000377825021636080000000007800015246SEVEN-UP   0008       2LT010003290000001217240000049OUNCE  01CANADA DRY GINGER ALE    2LT                      N  00032901 0000P SGRP08DAVEWKDD
I5822D100821211240000000377825021636080000000007800015646SEVEN-UP   0008       2LT010003290000001217240000049OUNCE  01CANADA DRY CRANBERRY     2LT                      N  00032901 0000P SGRP08DAVEWKDD
I5822D100821211240000000377825021636080000000007800015646SEVEN-UP   0008       2LT010003290000001217240000049OUNCE  01CANADA DRY CRANBERRY     2LT                      N  00032901 0000P SGRP08DAVEWKDD
I5822D100821211240000000377825021636080000000007800018046SEVEN-UP   0008       2LT010003290000001217240000049OUNCE  01VERNOR'S 2 LT                                     N  00032901 0000P SGRP08DAVEWKDD
I5822D100821211240000000377825021636080000000007800018246SEVEN-UP   0008       2LT010003290000001217240000049OUNCE  01VERNOR'S ZERO 2LT                                 N  00032901 0000P SGRP08DAVEWKDD
I5876D10082      000000000000502163601                              0000          000000000000001217240000000       00      PRICE CHANGES                               N  00000000 0000P SGRP08DAVEWKDD
I5876D100821211240000000377825021636030000000007800000034SEVEN-UP   0008       2LT010003290000001217240000049OUNCE  017UP 2LT                                           N  00032901 0000P SGRP08DAVEWKDD
I5876D100821211240000000377825021636030000000007800000075SEVEN-UP   0008       2LT010003290000001217240000049OUNCE  017UP ZERO 2LT                                      N  00032901 0000P SGRP08DAVEWKDD
I5876D100821211240000000377825021636030000000007800000531SEVEN-UP   0008       2LT010003290000001217240000049OUNCE  017UP 2LT CHERRY                                    N  00032901 0000P SGRP08DAVEWKDD
I5876D100821211240000000377825021636030000000007800000831SEVEN-UP   0008       2LT010003290000001217240000049OUNCE  017UP ZERO CHERRY 2LT                               N  00032901 0000P SGRP08DAVEWKDD
I5876D100821211240000000377825021636030000000007800001646SEVEN-UP   0008       2LT010003290000001217240000049OUNCE  01SQUIRT 2LT                                        N  00032901 0000P SGRP08DAVEWKDD
I5876D100821211240000000377825021636030000000007800001746SEVEN-UP   0008       2LT010003290000001217240000049OUNCE  01SQUIRT ZERO 2LT                                   N  00032901 0000P SGRP08DAVEWKDD
I5876D100821211240000000377825021636040000000007800000408SEVEN-UP   0008       2LT010003290000001217240000049OUNCE  01HAWAIIAN PUNCH RED                                N  00032901 0000P SGRP08DAVEWKDD
I5876D100821211240000000377825021636040000000007800002036SEVEN-UP   0008       2LT010003290000001217240000049OUNCE  01TAHITIAN TREAT 2LT       FRUIT PUNCH              N  00032901 0000P SGRP08DAVEWKDD
I5876D100821211240000000377825021636040000000007800002036SEVEN-UP   0008       2LT010003290000001217240000049OUNCE  01TAHITIAN TREAT 2LT       FRUIT PUNCH              N  00032901 0000P SGRP08DAVEWKDD
I5876D100821211240000000377825021636040000000007800003180SEVEN-UP   0008       2LT010003290000001217240000049OUNCE  01SUNKIST 2LT STRAWBERRY   LEMONADE                 N  00032901 0000P SGRP08DAVEWKDD
I5876D100821211240000000377825021636040000000007800005246SEVEN-UP   0008       2LT010003290000001217240000049OUNCE  01A&W 2LT ROOT BEER                                 N  00032901 0000P SGRP08DAVEWKDD
I5876D100821211240000000377825021636040000000007800005446SEVEN-UP   0008       2LT010003290000001217240000049OUNCE  01A&W 2LT CREAM SODA                                N  00032901 0000P SGRP08DAVEWKDD
I5876D100821211240000000377825021636040000000007800011646SEVEN-UP   0008       2LT010003290000001217240000049OUNCE  01SUNKIST 2LT GRAPE                                 N  00032901 0000P SGRP08DAVEWKDD
I5876D100821211240000000377825021636050000000007800005346SEVEN-UP   0008       2LT010003290000001217240000049OUNCE  01A&W 2LT ROOTBEER         ZERO SUGAR               N  00032901 0000P SGRP08DAVEWKDD
I5876D100821211240000000377825021636050000000007800005546SEVEN-UP   0008       2LT010003290000001217240000049OUNCE  01A&W 2LT ZERO CREAM SODA                           N  00032901 0000P SGRP08DAVEWKDD
I5876D100821211240000000377825021636050000000007800012246SEVEN-UP   0008       2LT010003290000001217240000049OUNCE  01SUNKIST 2LT ZERO SUGAR                            N  00032901 0000P SGRP08DAVEWKDD
I5876D100821211240000000377825021636080000000007800002505SEVEN-UP   0008       2LT010003290000001217240000049OUNCE  01CANADA DRY BLACKBERRY    2LT                      N  00032901 0000P SGRP08DAVEWKDD
I5876D100821211240000000377825021636080000000007800003025SEVEN-UP   0008       2LT010003290000001217240000049OUNCE  01CANADA DRY LEMONADE 2LT                           N  00032901 0000P SGRP08DAVEWKDD
I5876D100821211240000000377825021636080000000007800003328SEVEN-UP   0008       2LT010003290000001217240000049OUNCE  01CANADA DRY 2LT BOLD                               N  00032901 0000P SGRP08DAVEWKDD
I5876D100821211240000000377825021636080000000007800014146SEVEN-UP   0008       2LT010003290000001217240000049OUNCE  01CANADA DRY 2LT ZERO      CRANBERRY GINGERALE      N  00032901 0000P SGRP08DAVEWKDD
I5876D100821211240000000377825021636080000000007800014146SEVEN-UP   0008       2LT010003290000001217240000049OUNCE  01CANADA DRY 2LT ZERO      CRANBERRY GINGERALE      N  00032901 0000P SGRP08DAVEWKDD
I5876D100821211240000000377825021636080000000007800014846SEVEN-UP   0008       2LT010003290000001217240000049OUNCE  01CANADA DRY ZERO 2LT      GINGER ALE               N  00032901 0000P SGRP08DAVEWKDD
I5876D100821211240000000377825021636080000000007800014846SEVEN-UP   0008       2LT010003290000001217240000049OUNCE  01CANADA DRY ZERO 2LT      GINGER ALE               N  00032901 0000P SGRP08DAVEWKDD
I5876D100821211240000000377825021636080000000007800015246SEVEN-UP   0008       2LT010003290000001217240000049OUNCE  01CANADA DRY GINGER ALE    2LT                      N  00032901 0000P SGRP08DAVEWKDD
I5876D100821211240000000377825021636080000000007800015246SEVEN-UP   0008       2LT010003290000001217240000049OUNCE  01CANADA DRY GINGER ALE    2LT                      N  00032901 0000P SGRP08DAVEWKDD
I5876D100821211240000000377825021636080000000007800015646SEVEN-UP   0008       2LT010003290000001217240000049OUNCE  01CANADA DRY CRANBERRY     2LT                      N  00032901 0000P SGRP08DAVEWKDD
I5876D100821211240000000377825021636080000000007800015646SEVEN-UP   0008       2LT010003290000001217240000049OUNCE  01CANADA DRY CRANBERRY     2LT                      N  00032901 0000P SGRP08DAVEWKDD
I5876D100821211240000000377825021636080000000007800018046SEVEN-UP   0008       2LT010003290000001217240000049OUNCE  01VERNOR'S 2 LT                                     N  00032901 0000P SGRP08DAVEWKDD
I5876D100821211240000000377825021636080000000007800018246SEVEN-UP   0008       2LT010003290000001217240000049OUNCE  01VERNOR'S ZERO 2LT                                 N  00032901 0000P SGRP08DAVEWKDD
I5881D10082      000000000000502163601                              0000          000000000000001217240000000       00      PRICE CHANGES                               N  00000000 0000P SGRP08DAVEWKDD
I5881D100821211240000000377825021636030000000007800000034SEVEN-UP   0008       2LT010003290000001217240000049OUNCE  017UP 2LT                                           N  00032901 0000P SGRP08DAVEWKDD
I5881D100821211240000000377825021636030000000007800000034SEVEN-UP   0008       2LT010003290000001217240000049OUNCE  017UP 2LT                                           N  00032901 0000P SGRP08DAVEWKDD
I5881D100821211240000000377825021636030000000007800000075SEVEN-UP   0008       2LT010003290000001217240000049OUNCE  017UP ZERO 2LT                                      N  00032901 0000P SGRP08DAVEWKDD
I5881D100821211240000000377825021636030000000007800000075SEVEN-UP   0008       2LT010003290000001217240000049OUNCE  017UP ZERO 2LT                                      N  00032901 0000P SGRP08DAVEWKDD
I5881D100821211240000000377825021636030000000007800000531SEVEN-UP   0008       2LT010003290000001217240000049OUNCE  017UP 2LT CHERRY                                    N  00032901 0000P SGRP08DAVEWKDD
I5881D100821211240000000377825021636030000000007800000531SEVEN-UP   0008       2LT010003290000001217240000049OUNCE  017UP 2LT CHERRY                                    N  00032901 0000P SGRP08DAVEWKDD
I5881D100821211240000000377825021636030000000007800000831SEVEN-UP   0008       2LT010003290000001217240000049OUNCE  017UP ZERO CHERRY 2LT                               N  00032901 0000P SGRP08DAVEWKDD
I5881D100821211240000000377825021636030000000007800000831SEVEN-UP   0008       2LT010003290000001217240000049OUNCE  017UP ZERO CHERRY 2LT                               N  00032901 0000P SGRP08DAVEWKDD
I5881D100821211240000000377825021636030000000007800001646SEVEN-UP   0008       2LT010003290000001217240000049OUNCE  01SQUIRT 2LT                                        N  00032901 0000P SGRP08DAVEWKDD
I5881D100821211240000000377825021636030000000007800001646SEVEN-UP   0008       2LT010003290000001217240000049OUNCE  01SQUIRT 2LT                                        N  00032901 0000P SGRP08DAVEWKDD
I5881D100821211240000000377825021636030000000007800001746SEVEN-UP   0008       2LT010003290000001217240000049OUNCE  01SQUIRT ZERO 2LT                                   N  00032901 0000P SGRP08DAVEWKDD
I5881D100821211240000000377825021636030000000007800001746SEVEN-UP   0008       2LT010003290000001217240000049OUNCE  01SQUIRT ZERO 2LT                                   N  00032901 0000P SGRP08DAVEWKDD
I5881D100821211240000000377825021636040000000007800000408SEVEN-UP   0008       2LT010003290000001217240000049OUNCE  01HAWAIIAN PUNCH RED                                N  00032901 0000P SGRP08DAVEWKDD
I5881D100821211240000000377825021636040000000007800000408SEVEN-UP   0008       2LT010003290000001217240000049OUNCE  01HAWAIIAN PUNCH RED                                N  00032901 0000P SGRP08DAVEWKDD
I5881D100821211240000000377825021636040000000007800002036SEVEN-UP   0008       2LT010003290000001217240000049OUNCE  01TAHITIAN TREAT 2LT       FRUIT PUNCH              N  00032901 0000P SGRP08DAVEWKDD
I5881D100821211240000000377825021636040000000007800002036SEVEN-UP   0008       2LT010003290000001217240000049OUNCE  01TAHITIAN TREAT 2LT       FRUIT PUNCH              N  00032901 0000P SGRP08DAVEWKDD
I5881D100821211240000000377825021636040000000007800003180SEVEN-UP   0008       2LT010003290000001217240000049OUNCE  01SUNKIST 2LT STRAWBERRY   LEMONADE                 N  00032901 0000P SGRP08DAVEWKDD
I5881D100821211240000000377825021636040000000007800005246SEVEN-UP   0008       2LT010003290000001217240000049OUNCE  01A&W 2LT ROOT BEER                                 N  00032901 0000P SGRP08DAVEWKDD
I5881D100821211240000000377825021636040000000007800005246SEVEN-UP   0008       2LT010003290000001217240000049OUNCE  01A&W 2LT ROOT BEER                                 N  00032901 0000P SGRP08DAVEWKDD
I5881D100821211240000000377825021636040000000007800005446SEVEN-UP   0008       2LT010003290000001217240000049OUNCE  01A&W 2LT CREAM SODA                                N  00032901 0000P SGRP08DAVEWKDD
I5881D100821211240000000377825021636040000000007800005446SEVEN-UP   0008       2LT010003290000001217240000049OUNCE  01A&W 2LT CREAM SODA                                N  00032901 0000P SGRP08DAVEWKDD
I5881D100821211240000000377825021636040000000007800011646SEVEN-UP   0008       2LT010003290000001217240000049OUNCE  01SUNKIST 2LT GRAPE                                 N  00032901 0000P SGRP08DAVEWKDD
I5881D100821211240000000377825021636040000000007800011646SEVEN-UP   0008       2LT010003290000001217240000049OUNCE  01SUNKIST 2LT GRAPE                                 N  00032901 0000P SGRP08DAVEWKDD
I5881D100821211240000000377825021636050000000007800005346SEVEN-UP   0008       2LT010003290000001217240000049OUNCE  01A&W 2LT ROOTBEER         ZERO SUGAR               N  00032901 0000P SGRP08DAVEWKDD
I5881D100821211240000000377825021636050000000007800005346SEVEN-UP   0008       2LT010003290000001217240000049OUNCE  01A&W 2LT ROOTBEER         ZERO SUGAR               N  00032901 0000P SGRP08DAVEWKDD
I5881D100821211240000000377825021636050000000007800005546SEVEN-UP   0008       2LT010003290000001217240000049OUNCE  01A&W 2LT ZERO CREAM SODA                           N  00032901 0000P SGRP08DAVEWKDD
I5881D100821211240000000377825021636050000000007800005546SEVEN-UP   0008       2LT010003290000001217240000049OUNCE  01A&W 2LT ZERO CREAM SODA                           N  00032901 0000P SGRP08DAVEWKDD
I5881D100821211240000000377825021636050000000007800012246SEVEN-UP   0008       2LT010003290000001217240000049OUNCE  01SUNKIST 2LT ZERO SUGAR                            N  00032901 0000P SGRP08DAVEWKDD
I5881D100821211240000000377825021636050000000007800012246SEVEN-UP   0008       2LT010003290000001217240000049OUNCE  01SUNKIST 2LT ZERO SUGAR                            N  00032901 0000P SGRP08DAVEWKDD
I5881D100821211240000000377825021636080000000007800002505SEVEN-UP   0008       2LT010003290000001217240000049OUNCE  01CANADA DRY BLACKBERRY    2LT                      N  00032901 0000P SGRP08DAVEWKDD
I5881D100821211240000000377825021636080000000007800003025SEVEN-UP   0008       2LT010003290000001217240000049OUNCE  01CANADA DRY LEMONADE 2LT                           N  00032901 0000P SGRP08DAVEWKDD
I5881D100821211240000000377825021636080000000007800003328SEVEN-UP   0008       2LT010003290000001217240000049OUNCE  01CANADA DRY 2LT BOLD                               N  00032901 0000P SGRP08DAVEWKDD
I5881D100821211240000000377825021636080000000007800014146SEVEN-UP   0008       2LT010003290000001217240000049OUNCE  01CANADA DRY 2LT ZERO      CRANBERRY GINGERALE      N  00032901 0000P SGRP08DAVEWKDD
I5881D100821211240000000377825021636080000000007800014146SEVEN-UP   0008       2LT010003290000001217240000049OUNCE  01CANADA DRY 2LT ZERO      CRANBERRY GINGERALE      N  00032901 0000P SGRP08DAVEWKDD
I5881D100821211240000000377825021636080000000007800014846SEVEN-UP   0008       2LT010003290000001217240000049OUNCE  01CANADA DRY ZERO 2LT      GINGER ALE               N  00032901 0000P SGRP08DAVEWKDD
I5881D100821211240000000377825021636080000000007800014846SEVEN-UP   0008       2LT010003290000001217240000049OUNCE  01CANADA DRY ZERO 2LT      GINGER ALE               N  00032901 0000P SGRP08DAVEWKDD
I5881D100821211240000000377825021636080000000007800015246SEVEN-UP   0008       2LT010003290000001217240000049OUNCE  01CANADA DRY GINGER ALE    2LT                      N  00032901 0000P SGRP08DAVEWKDD
I5881D100821211240000000377825021636080000000007800015246SEVEN-UP   0008       2LT010003290000001217240000049OUNCE  01CANADA DRY GINGER ALE    2LT                      N  00032901 0000P SGRP08DAVEWKDD
I5881D100821211240000000377825021636080000000007800015646SEVEN-UP   0008       2LT010003290000001217240000049OUNCE  01CANADA DRY CRANBERRY     2LT                      N  00032901 0000P SGRP08DAVEWKDD
I5881D100821211240000000377825021636080000000007800015646SEVEN-UP   0008       2LT010003290000001217240000049OUNCE  01CANADA DRY CRANBERRY     2LT                      N  00032901 0000P SGRP08DAVEWKDD
I5881D100821211240000000377825021636080000000007800018046SEVEN-UP   0008       2LT010003290000001217240000049OUNCE  01VERNOR'S 2 LT                                     N  00032901 0000P SGRP08DAVEWKDD
I5881D100821211240000000377825021636080000000007800018046SEVEN-UP   0008       2LT010003290000001217240000049OUNCE  01VERNOR'S 2 LT                                     N  00032901 0000P SGRP08DAVEWKDD
I5881D100821211240000000377825021636080000000007800018246SEVEN-UP   0008       2LT010003290000001217240000049OUNCE  01VERNOR'S ZERO 2LT                                 N  00032901 0000P SGRP08DAVEWKDD
I5881D100821211240000000377825021636080000000007800018246SEVEN-UP   0008       2LT010003290000001217240000049OUNCE  01VERNOR'S ZERO 2LT                                 N  00032901 0000P SGRP08DAVEWKDD
I5882D10082      000000000000502163601                              0000          000000000000001217240000000       00      PRICE CHANGES                               N  00000000 0000P SGRP08DAVEWKDD
I5882D100821211240000000377825021636030000000007800000034SEVEN-UP   0008       2LT010003290000001217240000049OUNCE  017UP 2LT                                           N  00032901 0000P SGRP08DAVEWKDD
I5882D100821211240000000377825021636030000000007800000075SEVEN-UP   0008       2LT010003290000001217240000049OUNCE  017UP ZERO 2LT                                      N  00032901 0000P SGRP08DAVEWKDD
I5882D100821211240000000377825021636030000000007800000531SEVEN-UP   0008       2LT010003290000001217240000049OUNCE  017UP 2LT CHERRY                                    N  00032901 0000P SGRP08DAVEWKDD
I5882D100821211240000000377825021636030000000007800000831SEVEN-UP   0008       2LT010003290000001217240000049OUNCE  017UP ZERO CHERRY 2LT                               N  00032901 0000P SGRP08DAVEWKDD
I5882D100821211240000000377825021636030000000007800001646SEVEN-UP   0008       2LT010003290000001217240000049OUNCE  01SQUIRT 2LT                                        N  00032901 0000P SGRP08DAVEWKDD
I5882D100821211240000000377825021636030000000007800001746SEVEN-UP   0008       2LT010003290000001217240000049OUNCE  01SQUIRT ZERO 2LT                                   N  00032901 0000P SGRP08DAVEWKDD
I5882D100821211240000000377825021636040000000007800000408SEVEN-UP   0008       2LT010003290000001217240000049OUNCE  01HAWAIIAN PUNCH RED                                N  00032901 0000P SGRP08DAVEWKDD
I5882D100821211240000000377825021636040000000007800002036SEVEN-UP   0008       2LT010003290000001217240000049OUNCE  01TAHITIAN TREAT 2LT       FRUIT PUNCH              N  00032901 0000P SGRP08DAVEWKDD
I5882D100821211240000000377825021636040000000007800003180SEVEN-UP   0008       2LT010003290000001217240000049OUNCE  01SUNKIST 2LT STRAWBERRY   LEMONADE                 N  00032901 0000P SGRP08DAVEWKDD
I5882D100821211240000000377825021636040000000007800005246SEVEN-UP   0008       2LT010003290000001217240000049OUNCE  01A&W 2LT ROOT BEER                                 N  00032901 0000P SGRP08DAVEWKDD
I5882D100821211240000000377825021636040000000007800005446SEVEN-UP   0008       2LT010003290000001217240000049OUNCE  01A&W 2LT CREAM SODA                                N  00032901 0000P SGRP08DAVEWKDD
I5882D100821211240000000377825021636040000000007800011646SEVEN-UP   0008       2LT010003290000001217240000049OUNCE  01SUNKIST 2LT GRAPE                                 N  00032901 0000P SGRP08DAVEWKDD
I5882D100821211240000000377825021636050000000007800005346SEVEN-UP   0008       2LT010003290000001217240000049OUNCE  01A&W 2LT ROOTBEER         ZERO SUGAR               N  00032901 0000P SGRP08DAVEWKDD
I5882D100821211240000000377825021636050000000007800005546SEVEN-UP   0008       2LT010003290000001217240000049OUNCE  01A&W 2LT ZERO CREAM SODA                           N  00032901 0000P SGRP08DAVEWKDD
I5882D100821211240000000377825021636050000000007800012246SEVEN-UP   0008       2LT010003290000001217240000049OUNCE  01SUNKIST 2LT ZERO SUGAR                            N  00032901 0000P SGRP08DAVEWKDD
I5882D100821211240000000377825021636080000000007800002505SEVEN-UP   0008       2LT010003290000001217240000049OUNCE  01CANADA DRY BLACKBERRY    2LT                      N  00032901 0000P SGRP08DAVEWKDD
I5882D100821211240000000377825021636080000000007800003025SEVEN-UP   0008       2LT010003290000001217240000049OUNCE  01CANADA DRY LEMONADE 2LT                           N  00032901 0000P SGRP08DAVEWKDD
I5882D100821211240000000377825021636080000000007800003328SEVEN-UP   0008       2LT010003290000001217240000049OUNCE  01CANADA DRY 2LT BOLD                               N  00032901 0000P SGRP08DAVEWKDD
I5882D100821211240000000377825021636080000000007800014146SEVEN-UP   0008       2LT010003290000001217240000049OUNCE  01CANADA DRY 2LT ZERO      CRANBERRY GINGERALE      N  00032901 0000P SGRP08DAVEWKDD
I5882D100821211240000000377825021636080000000007800014846SEVEN-UP   0008       2LT010003290000001217240000049OUNCE  01CANADA DRY ZERO 2LT      GINGER ALE               N  00032901 0000P SGRP08DAVEWKDD
I5882D100821211240000000377825021636080000000007800015246SEVEN-UP   0008       2LT010003290000001217240000049OUNCE  01CANADA DRY GINGER ALE    2LT                      N  00032901 0000P SGRP08DAVEWKDD
I5882D100821211240000000377825021636080000000007800015646SEVEN-UP   0008       2LT010003290000001217240000049OUNCE  01CANADA DRY CRANBERRY     2LT                      N  00032901 0000P SGRP08DAVEWKDD
I5882D100821211240000000377825021636080000000007800015646SEVEN-UP   0008       2LT010003290000001217240000049OUNCE  01CANADA DRY CRANBERRY     2LT                      N  00032901 0000P SGRP08DAVEWKDD
I5882D100821211240000000377825021636080000000007800018046SEVEN-UP   0008       2LT010003290000001217240000049OUNCE  01VERNOR'S 2 LT                                     N  00032901 0000P SGRP08DAVEWKDD
I5882D100821211240000000377825021636080000000007800018246SEVEN-UP   0008       2LT010003290000001217240000049OUNCE  01VERNOR'S ZERO 2LT                                 N  00032901 0000P SGRP08DAVEWKDD
